{
  "_format": "hh-sol-artifact-1",
  "contractName": "DiploChain",
  "sourceName": "contracts/DiploChain.sol",
  "abi": [
    {
      "inputs": [],
      "stateMutability": "nonpayable",
      "type": "constructor"
    },
    {
      "anonymous": false,
      "inputs": [
        {
          "indexed": true,
          "internalType": "bytes32",
          "name": "diplomaHash",
          "type": "bytes32"
        },
        {
          "indexed": false,
          "internalType": "string",
          "name": "studentName",
          "type": "string"
        },
        {
          "indexed": false,
          "internalType": "string",
          "name": "degreeType",
          "type": "string"
        }
      ],
      "name": "DiplomaIssued",
      "type": "event"
    },
    {
      "anonymous": false,
      "inputs": [
        {
          "indexed": true,
          "internalType": "bytes32",
          "name": "diplomaHash",
          "type": "bytes32"
        }
      ],
      "name": "DiplomaRevoked",
      "type": "event"
    },
    {
      "inputs": [
        {
          "internalType": "bytes32",
          "name": "",
          "type": "bytes32"
        }
      ],
      "name": "diplomas",
      "outputs": [
        {
          "internalType": "string",
          "name": "studentName",
          "type": "string"
        },
        {
          "internalType": "string",
          "name": "degreeType",
          "type": "string"
        },
        {
          "internalType": "uint256",
          "name": "graduationYear",
          "type": "uint256"
        },
        {
          "internalType": "uint256",
          "name": "issueDate",
          "type": "uint256"
        },
        {
          "internalType": "bool",
          "name": "isValid",
          "type": "bool"
        }
      ],
      "stateMutability": "view",
      "type": "function"
    },
    {
      "inputs": [
        {
          "internalType": "bytes32",
          "name": "_hash",
          "type": "bytes32"
        },
        {
          "internalType": "string",
          "name": "_name",
          "type": "string"
        },
        {
          "internalType": "string",
          "name": "_degree",
          "type": "string"
        },
        {
          "internalType": "uint256",
          "name": "_year",
          "type": "uint256"
        }
      ],
      "name": "issueDiploma",
      "outputs": [],
      "stateMutability": "nonpayable",
      "type": "function"
    },
    {
      "inputs": [],
      "name": "owner",
      "outputs": [
        {
          "internalType": "address",
          "name": "",
          "type": "address"
        }
      ],
      "stateMutability": "view",
      "type": "function"
    },
    {
      "inputs": [
        {
          "internalType": "address",
          "name": "_newOwner",
          "type": "address"
        }
      ],
      "name": "transferOwnership",
      "outputs": [],
      "stateMutability": "nonpayable",
      "type": "function"
    },
    {
      "inputs": [
        {
          "internalType": "bytes32",
          "name": "_hash",
          "type": "bytes32"
        }
      ],
      "name": "verifyDiploma",
      "outputs": [
        {
          "internalType": "string",
          "name": "name",
          "type": "string"
        },
        {
          "internalType": "string",
          "name": "degree",
          "type": "string"
        },
        {
          "internalType": "uint256",
          "name": "year",
          "type": "uint256"
        },
        {
          "internalType": "uint256",
          "name": "date",
          "type": "uint256"
        },
        {
          "internalType": "bool",
          "name": "valid",
          "type": "bool"
        }
      ],
      "stateMutability": "view",
      "type": "function"
    }
  ],
  "bytecode": "0x608060405234801561001057600080fd5b50336000806101000a81548173ffffffffffffffffffffffffffffffffffffffff021916908373ffffffffffffffffffffffffffffffffffffffff16021790555061114e806100606000396000f3fe608060405234801561001057600080fd5b50600436106100575760003560e01c80630b74e12d1461005c5780636e1cca25146100785780638da5cb5b146100ac578063e89cc997146100ca578063f2fde38b146100fe575b600080fd5b61007660048036038101906100719190610956565b61011a565b005b610092600480360381019061008d91906109f5565b6102ec565b6040516100a3959493929190610acb565b60405180910390f35b6100b461043f565b6040516100c19190610b6d565b60405180910390f35b6100e460048036038101906100df91906109f5565b610463565b6040516100f5959493929190610acb565b60405180910390f35b61011860048036038101906101139190610bb4565b610650565b005b60008054906101000a900473ffffffffffffffffffffffffffffffffffffffff1673ffffffffffffffffffffffffffffffffffffffff163373ffffffffffffffffffffffffffffffffffffffff16146101a8576040517f08c379a000000000000000000000000000000000000000000000000000000000815260040161019f90610c53565b60405180910390fd5b6001600085815260200190815260200160002060040160009054906101000a900460ff161561020c576040517f08c379a000000000000000000000000000000000000000000000000000000000815260040161020390610ce5565b60405180910390fd5b6040518060a001604052808481526020018381526020018281526020014281526020016001151581525060016000868152602001908152602001600020600082015181600001908161025e9190610f11565b5060208201518160010190816102749190610f11565b50604082015181600201556060820151816003015560808201518160040160006101000a81548160ff021916908315150217905550905050837fc828f258549f428377f518105fead494c64ded8ba1dc9ba5e820a5dcc9d90ca584846040516102de929190610fe3565b60405180910390a250505050565b600160205280600052604060002060009150905080600001805461030f90610d34565b80601f016020809104026020016040519081016040528092919081815260200182805461033b90610d34565b80156103885780601f1061035d57610100808354040283529160200191610388565b820191906000526020600020905b81548152906001019060200180831161036b57829003601f168201915b50505050509080600101805461039d90610d34565b80601f01602080910402602001604051908101604052809291908181526020018280546103c990610d34565b80156104165780601f106103eb57610100808354040283529160200191610416565b820191906000526020600020905b8154815290600101906020018083116103f957829003601f168201915b5050505050908060020154908060030154908060040160009054906101000a900460ff16905085565b60008054906101000a900473ffffffffffffffffffffffffffffffffffffffff1681565b606080600080600080600160008881526020019081526020016000206040518060a001604052908160008201805461049a90610d34565b80601f01602080910402602001604051908101604052809291908181526020018280546104c690610d34565b80156105135780601f106104e857610100808354040283529160200191610513565b820191906000526020600020905b8154815290600101906020018083116104f657829003601f168201915b5050505050815260200160018201805461052c90610d34565b80601f016020809104026020016040519081016040528092919081815260200182805461055890610d34565b80156105a55780601f1061057a576101008083540402835291602001916105a5565b820191906000526020600020905b81548152906001019060200180831161058857829003601f168201915b5050505050815260200160028201548152602001600382015481526020016004820160009054906101000a900460ff16151515158152505090508060800151610623576040517f08c379a000000000000000000000000000000000000000000000000000000000815260040161061a90611066565b60405180910390fd5b80600001518160200151826040015183606001518460800151955095509550955095505091939590929450565b60008054906101000a900473ffffffffffffffffffffffffffffffffffffffff1673ffffffffffffffffffffffffffffffffffffffff163373ffffffffffffffffffffffffffffffffffffffff16146106de576040517f08c379a00000000000000000000000000000000000000000000000000000000081526004016106d590610c53565b60405180910390fd5b600073ffffffffffffffffffffffffffffffffffffffff168173ffffffffffffffffffffffffffffffffffffffff160361074d576040517f08c379a0000000000000000000000000000000000000000000000000000000008152600401610744906110f8565b60405180910390fd5b806000806101000a81548173ffffffffffffffffffffffffffffffffffffffff021916908373ffffffffffffffffffffffffffffffffffffffff16021790555050565b6000604051905090565b600080fd5b600080fd5b6000819050919050565b6107b7816107a4565b81146107c257600080fd5b50565b6000813590506107d4816107ae565b92915050565b600080fd5b600080fd5b6000601f19601f8301169050919050565b7f4e487b7100000000000000000000000000000000000000000000000000000000600052604160045260246000fd5b61082d826107e4565b810181811067ffffffffffffffff8211171561084c5761084b6107f5565b5b80604052505050565b600061085f610790565b905061086b8282610824565b919050565b600067ffffffffffffffff82111561088b5761088a6107f5565b5b610894826107e4565b9050602081019050919050565b82818337600083830152505050565b60006108c36108be84610870565b610855565b9050828152602081018484840111156108df576108de6107df565b5b6108ea8482856108a1565b509392505050565b600082601f830112610907576109066107da565b5b81356109178482602086016108b0565b91505092915050565b6000819050919050565b61093381610920565b811461093e57600080fd5b50565b6000813590506109508161092a565b92915050565b600080600080608085870312156109705761096f61079a565b5b600061097e878288016107c5565b945050602085013567ffffffffffffffff81111561099f5761099e61079f565b5b6109ab878288016108f2565b935050604085013567ffffffffffffffff8111156109cc576109cb61079f565b5b6109d8878288016108f2565b92505060606109e987828801610941565b91505092959194509250565b600060208284031215610a0b57610a0a61079a565b5b6000610a19848285016107c5565b91505092915050565b600081519050919050565b600082825260208201905092915050565b60005b83811015610a5c578082015181840152602081019050610a41565b60008484015250505050565b6000610a7382610a22565b610a7d8185610a2d565b9350610a8d818560208601610a3e565b610a96816107e4565b840191505092915050565b610aaa81610920565b82525050565b60008115159050919050565b610ac581610ab0565b82525050565b600060a0820190508181036000830152610ae58188610a68565b90508181036020830152610af98187610a68565b9050610b086040830186610aa1565b610b156060830185610aa1565b610b226080830184610abc565b9695505050505050565b600073ffffffffffffffffffffffffffffffffffffffff82169050919050565b6000610b5782610b2c565b9050919050565b610b6781610b4c565b82525050565b6000602082019050610b826000830184610b5e565b92915050565b610b9181610b4c565b8114610b9c57600080fd5b50565b600081359050610bae81610b88565b92915050565b600060208284031215610bca57610bc961079a565b5b6000610bd884828501610b9f565b91505092915050565b7f4f6e6c792074686520756e69766572736974792061646d696e2063616e20706560008201527f72666f726d207468697320616374696f6e000000000000000000000000000000602082015250565b6000610c3d603183610a2d565b9150610c4882610be1565b604082019050919050565b60006020820190508181036000830152610c6c81610c30565b9050919050565b7f54686973206469706c6f6d61206861736820697320616c72656164792072656760008201527f6973746572656400000000000000000000000000000000000000000000000000602082015250565b6000610ccf602783610a2d565b9150610cda82610c73565b604082019050919050565b60006020820190508181036000830152610cfe81610cc2565b9050919050565b7f4e487b7100000000000000000000000000000000000000000000000000000000600052602260045260246000fd5b60006002820490506001821680610d4c57607f821691505b602082108103610d5f57610d5e610d05565b5b50919050565b60008190508160005260206000209050919050565b60006020601f8301049050919050565b600082821b905092915050565b600060088302610dc77fffffffffffffffffffffffffffffffffffffffffffffffffffffffffffffffff82610d8a565b610dd18683610d8a565b95508019841693508086168417925050509392505050565b6000819050919050565b6000610e0e610e09610e0484610920565b610de9565b610920565b9050919050565b6000819050919050565b610e2883610df3565b610e3c610e3482610e15565b848454610d97565b825550505050565b600090565b610e51610e44565b610e5c818484610e1f565b505050565b5b81811015610e8057610e75600082610e49565b600181019050610e62565b5050565b601f821115610ec557610e9681610d65565b610e9f84610d7a565b81016020851015610eae578190505b610ec2610eba85610d7a565b830182610e61565b50505b505050565b600082821c905092915050565b6000610ee860001984600802610eca565b1980831691505092915050565b6000610f018383610ed7565b9150826002028217905092915050565b610f1a82610a22565b67ffffffffffffffff811115610f3357610f326107f5565b5b610f3d8254610d34565b610f48828285610e84565b600060209050601f831160018114610f7b5760008415610f69578287015190505b610f738582610ef5565b865550610fdb565b601f198416610f8986610d65565b60005b82811015610fb157848901518255600182019150602085019450602081019050610f8c565b86831015610fce5784890151610fca601f891682610ed7565b8355505b6001600288020188555050505b505050505050565b60006040820190508181036000830152610ffd8185610a68565b905081810360208301526110118184610a68565b90509392505050565b7f4469706c6f6d61206e6f7420666f756e64206f7220696e76616c696400000000600082015250565b6000611050601c83610a2d565b915061105b8261101a565b602082019050919050565b6000602082019050818103600083015261107f81611043565b9050919050565b7f4e6577206f776e65722063616e6e6f7420626520746865207a65726f2061646460008201527f7265737300000000000000000000000000000000000000000000000000000000602082015250565b60006110e2602483610a2d565b91506110ed82611086565b604082019050919050565b60006020820190508181036000830152611111816110d5565b905091905056fea2646970667358221220446ec7602def0c929bbaedf786e88713d165fe914506c2cd83f90967f092a17c64736f6c63430008180033",
  "linkReferences": {},
  "deployedLinkReferences": {}
}